:020000040800F2
:1000000000040020DB010008E9010008EB01000802
:10001000ED010008EF010008F101000800000000F8
:10002000000000000000000000000000F3010008D4
:10003000F501000800000000F7010008F9010008C0
:10004000FB010008FB010008FB010008FB010008A0
:10005000FB010008FB010008250C0008FB0100085B
:10006000FB010008FB010008FB010008FB01000880
:10007000FB010008FB010008FB010008FB01000870
:10008000FB010008FB010008FB010008FB01000860
:10009000FB010008FB010008FB010008370C000809
:1000A000FB010008FB010008FB010008FB01000840
:1000B000FB010008610D00089D0D0008FB01000810
:1000C000FB010008FB010008FB010008FB01000820
:1000D000FB010008CB050008FB010008FB0100083C
:1000E000FB010008FB010008FB010008FB01000800
:1000F000FB010008FB010008FB010008FB010008F0
:10010000FB010008FB010008BF0D0008FB0100080F
:10011000FB010008FB010008FB010008FB010008CF
:10012000FB010008FB010008FB010008FB010008BF
:1001300000F002F800F03AF80AA090E8000C8244BF
:100140008344AAF10107DA4501D100F02FF8AFF29C
:10015000090EBAE80F0013F0010F18BFFB1A43F0A5
:10016000010318472823000048230000103A24BF49
:1001700078C878C1FAD8520724BF30C830C144BF0C
:1001800004680C607047000000230024002500264E
:10019000103A28BF78C1FBD8520728BF30C148BFEA
:1001A0000B6070471FB51FBD10B510BD01F0ACF955
:1001B0001146FFF7F7FF01F089F801F0CAF903B41F
:1001C000FFF7F2FF03BC00F0F1F9000030BF72B698
:1001D00062B680F30888704770470B4880470B4928
:1001E00081F308880A480047FEE7FEE7FEE7FEE7DE
:1001F000FEE7FEE7FEE7FEE7FEE7FEE70548064905
:10020000044A064B70470000D90100086809002025
:100210003101000868010020680900206801002001
:100220004FF0E021096921F004014FF0E022116153
:10023000C21700EB5272C2F3C702234B1A70194661
:10024000097801EB4102C2EBC1114FF6FF7202EADD
:10025000C1011E4A1180704701461B4A12784A4369
:100260004FF0E0235A6100229A6101221A6100BF17
:100270004FF0E022106900F001021AB100F4803260
:10028000002AF5D000224FF0E0231A619A617047EE
:1002900001460E4A12884A434FF0E0235A61002279
:1002A0009A6101221A6100BF4FF0E022106900F04C
:1002B00001021AB100F48032002AF5D000224FF07A
:1002C000E0231A619A6170470000002002000020BC
:1002D000AA4A0A400243AA4B1A6070470146072304
:1002E00023EA01021202A64B1B1D18684FF6FF03FA
:1002F0001840A44B18431043A14B1B1D18607047B6
:100300002DE9F0478046894614461D462046E117F0
:1003100004EB9171C1F3870AE11704EB9171891025
:10032000A4EB8101CFB2042000EBC700C7B228467E
:10033000FFF7D4FFC5F1040008FA00F60F202841AA
:1003400000EA0900064306F00F06202C09DA8E4861
:1003500001680120A04001434FF0E020C0F80011E7
:100360000BE08948001D0068A4F1200101228A40A9
:1003700010434FF0E021C1F80401844850F82A00EE
:1003800006FA07F10843814941F82A00BDE8F087E1
:1003900070B504460B46CE1701EB9676C6F3870080
:1003A000CE1701EB9676B610A1EB8606B606350E93
:1003B000774B9B6943F00103754EB3614FEAB63347
:1003C00053F820300F26AE40B343724E46F820302B
:1003D000334653F8203004FA05F61E436D4B43F8BC
:1003E00020606D4B1B6801268E4033436A4E33609C
:1003F00002F0010343B1684B0C331B6801268E40A9
:100400003343654E0C36336002F0020343B1624B56
:1004100008331E6801238B401E435F4B08331E6068
:1004200070BD00B500205A490861C86014204861B9
:1004300000208861C8610846006840F0010008603B
:1004400008464068554908405149486008460068D8
:10045000534908404E4908600846006820F480204F
:1004600008600846406820F4FE004860002088606C
:1004700000214FF00060FFF72BFF00BD10B5404892
:100480000830006840F004003D49083108604048E9
:10049000C06940F080503E49C8614248406840F41D
:1004A0008070404948600846006840F004000860D9
:1004B0000846006840F002000860FFF787FE10BDA4
:1004C0003048001D2E49091D086070470146490645
:1004D0002F4A926942F001022D4B9A612D4A083A47
:1004E000526822F0E0622B4B083B5A601A46526871
:1004F0000A435A60704730B504460025FFF791FF64
:100500002348006840F480302149086000BF20483B
:100510000068400C0028FAD04FF480601C49486005
:10052000A01EC4B20846406840EA844048600846BD
:10053000406840F4803048601B48006840F032005A
:10054000194908601248006840F08070104908603E
:1005500000BF0F480068400E0028FAD00C484068E1
:1005600040F002000A49486005E009484068C0F3CD
:10057000870505F00305022DF7D130BD80FFFF1F71
:1005800008ED00E00000FA0500E100E000E400E012
:100590000010024008000140000401400000FFF884
:1005A000FFFFF6FE0070004000200240014600BF41
:1005B000704700BF6E4A128802F04002002AF9D04C
:1005C000C2B26B4B1B1D1A8070476949098801F044
:1005D000200111B36649091D0988C8B26549098817
:1005E00001F40041C9B96349098801F4804161B14E
:1005F0000A2803D000215F4A118020E05D49098864
:1006000041F400415B4A118019E00D2806D1594997
:10061000098841F48041574A118010E05549098802
:10062000C1F30D01544A505452490988491C514A9A
:10063000118011460988C72901DD0021118070470A
:100640002DE9F05F05460E46300101F059FD814667
:100650004A4905FB01F001F053FD8246494601F08D
:1006600039FC0746384601F02BFD84B2204601F0E4
:1006700047FD8346394601F088FE82464FF08341AC
:1006800001F086FD814601F01BFD80464FF6FF70AC
:1006900000EA041404EB080084B23948806940F091
:1006A0000400374988610846806940F480408861C9
:1006B0003448006820F47F603249086008460068CA
:1006C00040F40B6008602E48C06840F480402C491C
:1006D000C8600846C06820F48040C86024480830DC
:1006E0000480001D008842F20C01084320490C31AF
:1006F00008800846008840F480700880084600881A
:1007000040F0200008800223252203210846FFF73D
:10071000F7FDBDE8F09F00BF1549098801F0800191
:100720000029F9D0C0F30801114A121D1180704749
:1007300000B50D20FFF7EFFF0A20FFF7ECFF00BD2B
:1007400070B50546284600F0BCFE461E002403E0B6
:10075000285DFFF7E0FF641CB442F9DB285D0A283E
:1007600002D1FFF7E5FF02E0285DFFF7D4FF70BD7F
:1007700000380140080000204000002040420F00E7
:1007800000100240040801401A4AD26942F00102F6
:10079000184BDA61184A126822F0F002164B1A6000
:1007A0001A46126842F0B0021A60134A0C321268FC
:1007B00042F00202104B0C331A604FF080429085D9
:1007C0001185128B42F4E0424FF080431A831A469F
:1007D000128B42F400621A831A46128C42F0100205
:1007E0001A8480221A80D205128842F001021A80EF
:1007F0007047000000100240000801407CB506462A
:100800000125002000900190F948006820F00200C6
:10081000F74908600846006820F0010008600A20D7
:10082000FFF71AFD00240DE006EA050018B10120CB
:100830000DF8040002E000200DF804006806050E23
:10084000601CC4B2082CEFDB0125E948006820F4E5
:1008500080709DF8001009B1290200E000210843D2
:10086000E34908600846006820F400709DF8011014
:1008700011B14FF4007100E000210843DC49086029
:100880000846006820F480609DF8021011B14FF412
:10089000806100E000210843D549086008460068EF
:1008A00020F400609DF8031011B14FF4006100E0E6
:1008B00000210843CE4908600846006820F48050B3
:1008C0009DF8041011B14FF4805100E0002108435D
:1008D000C74908600846006820F400509DF80510DC
:1008E00011B14FF4005100E000210843C0490860F5
:1008F0000846006820F480409DF8061011B14FF4BE
:10090000804100E000210843B949086008460068BA
:1009100020F400409DF8071011B14FF4004100E0B1
:1009200000210843B24908600846006820F004002E
:10093000001D08606420FFF78FFCAD48006820F0C0
:100940000400AB4908606420FFF786FC7CBD7CB5E1
:1009500006460125002000900190A548006820F07F
:100960000200A34908600846006820F00100401C0E
:1009700008600A20FFF770FC00240DE006EA05007D
:1009800018B101200DF8040002E000200DF8040069
:100990006806050E601CC4B2082CEFDB01259448E4
:1009A000006820F480709DF8001009B1290200E071
:1009B000002108438E4908600846006820F4007052
:1009C0009DF8011011B14FF4007100E000210843BF
:1009D000874908600846006820F480609DF802108E
:1009E00011B14FF4806100E00021084380490860A4
:1009F0000846006820F400609DF8031011B14FF420
:100A0000006100E000210843794908600846006859
:100A100020F480509DF8041011B14FF4805100E093
:100A200000210843724908600846006820F400501D
:100A30009DF8051011B14FF4005100E0002108436A
:100A40006B4908600846006820F480409DF8061055
:100A500011B14FF4804100E000210843644908606F
:100A60000846006820F400409DF8071011B14FF4CB
:100A7000004100E0002108435D4908600846006825
:100A800020F00400001D08606420FFF7E5FB5848D3
:100A9000006820F00400564908606420FFF7DCFB82
:100AA0007CBD70B504460E46154636B1012E0AD0FF
:100AB000022E0ED0032E18D111E004F18001C8B22D
:100AC000FFF79CFE12E004F19001C8B2FFF796FE1A
:100AD0000CE004F18801C8B2FFF790FE06E004F1D3
:100AE0009801C8B2FFF78AFE00E000BF00BF06E031
:100AF0002878FFF72CFF3220FFF7AEFB6D1C28781B
:100B00000028F5D170BD10B53A48806940F020004A
:100B10003849886136480838006800203449083967
:100B200008600846006840F03330086030480068CC
:100B30004FF0FF302E4908602D480C380068002027
:100B40002B490C3908600846006840F033300860D3
:100B5000274800684FF0FF302549086008460068C4
:100B600020F0100008600A20FFF792FB2048006880
:100B700040F010001E4908603220FFF789FB30204A
:100B8000FFF73CFEC820FFF767FB3020FFF736FE7B
:100B90003220FFF761FB0C20FFF730FEC820FFF783
:100BA0005BFB1020FFF72AFEC820FFF755FB012052
:100BB000FFF724FE3220FFF76BFB0620FFF71EFE37
:100BC000C820FFF749FB0CA200210846FFF769FF88
:100BD0000BA201210020FFF764FF0BA202210020DD
:100BE000FFF75FFF0BA203210020FFF75AFF10BDA4
:100BF0000C14014000100240CBD9B6C80000000020
:100C0000BEE0C0EB00000000B2C8CCA4B0E5C1A6B5
:100C1000B6C80000CFB5CDB3CAC7B7F1BFAAC6F4F6
:100C20000000000043480088401C42490880012021
:100C30004149086070472DE9F84F4048008820F08E
:100C400001003E4908803E4800683E490860084669
:100C5000006801F055FA009001F0A2F880464FF0CC
:100C60003332394B00F0B4FE06460022374B00F019
:100C700057FD044600224FF0804300F0A7FF824654
:100C800000F074FC324908604FF400702A49086093
:100C9000BDE8F88F10B52F48806940F004002D4959
:100CA00088612D48006820F00F002B490860084635
:100CB000006840F00800086027480C30006840F0E9
:100CC000010025490C310860022200210846FFF787
:100CD0005FFB0223062203211846FFF711FB1D4884
:100CE000806940F010001B4988611C4840686FF320
:100CF0000B001A4948600846406840F283310843B7
:100D0000164948600846C068C8600846C06840F494
:100D10000070C8600846C068C8600122092102202E
:100D2000FFF736FB0223172219461846FFF7E8FAA9
:100D300010BD000012000020140401400008004013
:100D400028000020300000203333FB3F0000244007
:100D50003400002000100240000801400010014053
:100D60005B48008800F0010088B15A480078401CB8
:100D70005849087008460078142808DB564800884F
:100D8000564908800020544908805249087050484C
:100D9000008820F001004E490880704750480088C4
:100DA00000F0010020B14F480068401C4D49086028
:100DB0004B48008820F0010049490880704710B571
:100DC0004948008800F0010020B1022000F024F919
:100DD000464908804448008820F0010042490880C4
:100DE00010BD70B505460C464148C06940F0020090
:100DF0003F49C86136481C300580001F04803448D4
:100E0000001F008840F001003149091F0880084692
:100E1000008840F0400008802D481038008840F0DD
:100E200001002B491039088002231D2203210120D3
:100E3000FFF766FA70BD70B505460C462C48C069D0
:100E400040F004002A49C86125481C300580001F75
:100E500004802348001F008840F001002049091F3A
:100E600008800846008840F04000088002231E22C7
:100E700003210120FFF744FA70BD70B505460C460A
:100E80001B48C06940F008001949C86116481C3069
:100E90000580001F04801448001F008840F00100F6
:100EA0001149091F08800846008840F0400008806A
:100EB0000D481038008840F001000B4910390880B7
:100EC0000223322203211846FFF71AFA70BD0000F0
:100ED000100400400A00002012000020140000202E
:100EE0001008004028000020100C00400C000020DA
:100EF000001002405948806940F004005749886159
:100F00005748006820F47F4055490860534880697D
:100F100040F40070514988610846C06840F4007090
:100F2000C8600846C06820F40070C8600846406881
:100F300020F4404048600846406840F40040486063
:100F40004848006848490840464908600846006823
:100F500008600846006820F480700860081D00687A
:100F600020F00200091D08600846006820F4602097
:100F700008600846006840F4602008600846006881
:100F800040F4801008600846006820F400600860A3
:100F900034482830006820F4700032492831086055
:100FA00008460068002008602E480C30006820F4D5
:100FB0007C602C490C3108600846006840F4606091
:100FC00008600846006840F4E07008602548001D8D
:100FD000006840F001002349091D086008460068C8
:100FE00040F00800086000BF1E48001D006800F0C7
:100FF00008000028F8D11B48001D006840F00400DC
:101000001849091D086000BF1648001D006800F05F
:1010100004000028F8D170470146124830300068BB
:1010200020F01F000F4A303210601046006808435D
:1010300010600C48001D006840F48000094A121D31
:10104000106000BF0748001F006800F00200002881
:10105000F8D0044848300068704700000010024093
:101060000008014004240140FFFFF00008488069A7
:1010700040F00800064988610648006800200549DC
:1010800008600846006840F044300860704700007F
:10109000001002400418014010B5D4A20321002022
:1010A000FFF7FFFCD44800884FF47A7190FBF1F011
:1010B0003030D2490870D0480088642190FBF1F0AC
:1010C0000A2190FBF1F201FB12003030CB4948704D
:1010D000C94800880A2190FBF1F090FBF1F201FB76
:1010E00012003030C5498870C34800880A2190FB3F
:1010F000F1F201FB12003030C049C8704E20087177
:101100000A4603210520FFF7CCFC10BD10B50446AC
:10111000BBA202210020FFF7C4FC204600F0D0FF54
:10112000BA490860084600686421B0FBF1F030302D
:10113000B7490870B54800686421B0FBF1F201FBC3
:1011400012000A21B0FBF1F03030B14948702E2076
:101150008870AE4800680A21B0FBF1F201FB120072
:101160003030AB49C870632008716D2048710A4661
:1011700002210520FFF795FC10BD10B5A548008899
:1011800000282ED0A4A200210846FFF78AFCA74819
:10119000008828B1A6A201210020FFF782FC04E00C
:1011A000A6A201210020FFF77CFCA749A748006800
:1011B00000F0BAFF05D2A6A201210520FFF771FCBD
:1011C00004E0A5A201210520FFF76BFC9E499F4882
:1011D000006800F0DDFF0446FFF798FFFFF75CFFB3
:1011E00013E09FA200210846FFF75BFC8AA20121C1
:1011F0000020FFF756FC9AA202210020FFF751FCC5
:101200009CA203210020FFF74CFC10BD70B58E4955
:101210008E48006800F088FF04D240F285309A4979
:10122000088024E099498948006801F07DF803D2DC
:10123000C820954908801AE07C48008848B16E486B
:101240000088072190FBF1F0C0F561708E4908809D
:101250000DE07E4801688E4800F09AFF05468D49F2
:1012600000F0CAFD044600F02BFF8749088086483D
:1012700000884FF08041088770BD10B5864800880F
:1012800040F001008449088083481030008820F035
:101290000100814910310880002080490860002445
:1012A0000EE001207E4908600C20FEF7D5FF0020EB
:1012B0007C49C1F8A0010C20FEF7CEFF601CC4B22F
:1012C000082CEEDB0A20FEF7E3FF10BD0920FFF734
:1012D00012F94820FEF7A4FF4FF416514820FFF7FB
:1012E000AFF900214FF46170FFF74EFAFFF7D2FC1F
:1012F000FFF700FEFFF707FC41F61F414FF4FA70BD
:10130000FFF76FFD47210A20FFF795FD41F61F41CA
:1013100042F21070FFF7B1FDFFF7A8FE35E00A209A
:10132000FEF7B6FF60480068C0F300203949088026
:101330005D480068C0F340203C490880354800887B
:1013400018B3FFF79AFFFFF761FF3F493F48006876
:1013500000F0EAFE0AD200213C48006800F07CFE62
:1013600004D001204E490831086003E000204C49B8
:10137000083108604D493548006800F0D5FF02D2B9
:101380004A4832490860FFF7F8FEC8E710B548A29E
:1013900001210020FFF785FB47480088642190FB6E
:1013A000F1F0303045490870434800880A2190FB2D
:1013B000F1F090FBF1F201FB120030303F49487030
:1013C0003D4800880A2190FBF1F201FB1200303009
:1013D0003A4988707220C8702F20087173204871B4
:1013E0000A4601210520FFF75CFB10BDCCA4B0E547
:1013F000C1A6B6C8202000000C000020200000205C
:101400002020BEE0C0EB2020202000002C00002087
:10141000380000200E0000202020D6C7C4DCB5B95B
:10142000B3B5CFB5CDB320200000000010000020E0
:10143000CCA4B0E5C4A3CABD20200000BEE0C0EB30
:10144000C4A3CABD202000000000204134000020B9
:10145000D2D1CDA3B3B50000CEB4CDA3B3B50000B7
:10146000202020202020202020202020202020207C
:101470000000000020202020202020202020CEB4AA
:10148000BFAABBFA00000000160000200000F041D7
:1014900000000CC200002F4400080040280000207B
:1014A000A001224200002242080C01400000A0429C
:1014B000CBD9B6C80000000014000020180000209E
:1014C000704710B5431C02E010F8011B71B1810791
:1014D000FAD14FF0013202C88C1A8C4314EAC211BF
:1014E000F9D0C01A0A0603D0C01E10BDC01A10BD24
:1014F0000A0401D0801E10BD0902FCD0401E10BDA0
:101500007047704770477047754600F02BF8AE463D
:1015100005006946534620F00700854618B020B5FF
:10152000FEF76CFEBDE820404FF000064FF00007CC
:101530004FF000084FF0000B21F00701AC46ACE87B
:10154000C009ACE8C009ACE8C009ACE8C0098D46E8
:10155000704710B50446AFF300802046BDE8104048
:10156000FEF72DBE004870470801002021F0004220
:10157000A2F16052B2F5801F01F0004328BFD2F102
:101580007F6C0BD95FEA001C43EAC20242EB507049
:1015900018BF704728BF20F001007047B2F5801FC8
:1015A000BCBF184670474FEA410C1CF5001F02D221
:1015B000084600F0B4BE70B500F0B4FA000000892F
:1015C000FFF7F6BF4FF00040A0F580007047000025
:1015D00010B591EA030F48BF83F0004300F1FE828B
:1015E000841A71EB030C05D2121943EB0C03001B98
:1015F00061EB0C01DFF824E14FEA1154A4EB135C1A
:101600001EEA430F18BF9EEA445F73D023EA0E031D
:10161000DCF1200E21EA045143F4801332D322FA84
:101620000CFE10EB0E0023FA0CFE41EB0E01CCF188
:10163000200E03FA0EFE10EB0E0051F10001B1F581
:10164000801FCCF1200E32D201EB045112FA0EF2BF
:10165000BDE8104058BF7047401C38BF5FEA4202E7
:1016600018BF7047002814BF20F0010041F10001AD
:101670004FEA410313F5001F38BF7047A1F1C04185
:1016800000F09EBA012A43EB0302ACF1200CDCF11E
:101690001F0E32BF4FF0000E23FA0CF310EB0300C5
:1016A00041EB0451B4EB115FD0D0A1EB045101F533
:1016B000801149085FEA300001EB04510ED350F16C
:1016C000000038BF12FA0EFE08D1BDE81040C9E78D
:1016D000401C38BF5FEA4202CAD1C3E7BDE81040F0
:1016E0004FEA410313F5001F38BF7047A1F1C04115
:1016F00000F066BA9EEA445F08D011EA5E0FBDE8CA
:10170000104004BF01F0004100207047BDE81040C8
:1017100070B500F007FA00BF64FBBE3E0000E0FFBA
:101720002DE9C04130B4DFF8A0C23CEA111418BF63
:101730003CEA131400F0EC8081EA03051CEA111462
:1017400044EAD57418BF1CEA131500F0C780A4EB57
:1017500005044FF0004545EAC12145EAC32341EAAB
:10176000505143EA525304F17F74994204F5003416
:101770004FEAC0204FEAC22208BF904200F09C808E
:101780004FEA13650FF24016765D4FEA134506FBEC
:1017900005F7C7F1807706FB07F74FEAD737A7FBB6
:1017A00003687642C8F58038A7FB06CE38BFA8F19B
:1017B000010807FB08E64FF0000EA6FB028CE6FBD3
:1017C00003CEDCF1000CCEF1004E38BFAEF1010EBD
:1017D000A6FB0C584FF000074FF00005E6FB0E8704
:1017E000A1FB08C6A0FB07CE16EB0E0645F10005CF
:1017F000E1FB076515F1E04E7EBFA4F580345FEA9A
:1018000046066D4116F1800745F100054FEA17279E
:101810004FEA066647EA0567A6F1DE46B6F1805F45
:101820004FEA15251FD9384624F0010C05EBC47189
:10183000BCF1FE6F01EB0C1102D8F0BCBDE80081D9
:1018400024425CBF01F5801E9EEAC47F02D4F0BC36
:10185000BDE80081244238D4F0BCA1F1C041BDE80C
:10186000004100F0ADB94FEAD22242EA43524FEABA
:10187000D323A7FB02864FEAD02040EA415007FB62
:1018800003661EEA0E0F4FEAD12105FB026658BF20
:10189000A6EB0056B6EB00564FEA520E4EEAC37E58
:1018A00018EB0E0E56EB530EBDD518EB02085E4139
:1018B0007F1C55F10005B6E74FF480154FF0000787
:1018C0004FF000064FF00008ADE7F0BC4FF000000D
:1018D00001F1C04101F00041BDE8008111EA0C1F97
:1018E0000CEA131500D00CE013EA0C1F00F0258061
:1018F0004FF00000F0BC81EA030101F00041BDE8B7
:101900000081F0BCBDE8004181EA030100F058B954
:10191000F0BCBDE8004170B500F004F9097EFC3E62
:1019200000F007B881EA03014FF0000001F0004128
:10193000704781EA030100F043B9F0BCBDE8004103
:101940004FF0000021497047FFFDFBF9F7F5F4F275
:10195000F0EEEDEBE9E8E6E4E3E1E0DEDDDBDAD84A
:10196000D7D5D4D3D1D0CFCDCCCBCAC8C7C6C5C4A8
:10197000C2C1C0BFBEBDBCBBBAB9B8B7B6B5B4B3BF
:10198000B2B1B0AFAEADACABAAA9A8A8A7A6A5A4AA
:10199000A3A3A2A1A09F9F9E9D9C9C9B9A9999986E
:1019A0009797969595949393929191908F8F8E8E11
:1019B0008D8C8C8B8B8A898988888787868585849E
:1019C00084838382828181800000FF070000F87F8A
:1019D000DFF848C170B51CEA111E1EBF1CEA1315C2
:1019E0009EEA0C0F95EA0C0F00F06F8081EA030469
:1019F00023EA4C134EEAD47E21EA4C1141F48011C3
:101A000043F48013AE44A1FB024CA0FB0365AEF18E
:101A10007F7E361955EB0C05A1FB034C4CF10003FE
:101A2000A0FB021C16EB0C06654153F100030942B2
:101A300018BF46F0010613F4007F0BD14FEA0331C3
:101A40004FEA0530340341EA155140EA16506FF071
:101A500003020AE04FEAC3214FEAC520F40241EA3B
:101A6000555140EA56506FF0020202EB2E4201EB54
:101A7000025585EACE710AD05FEA440C18BF24F003
:101A8000004450F1000041F1000120EAD47040F21E
:101A9000FE7C624500D270BDA84214BF4FF0804466
:101AA0004FF04044002E08BF0024BEF1806FA8BF55
:101AB000A1F1C041BDE8704080F282804FF000008B
:101AC00001F1C04101F0004170479EEA0C0F0CEAA1
:101AD000131518BF95EA0C0F06D04FF0000081EAED
:101AE000030E0EF0004170BD00F01CF88900013EAD
:101AF00000F007B800F009B84FEA430C5FEA5C5CFD
:101B000008D081EA030100F05BB84FEA410C5FEABC
:101B10005C5CF6D14FF00000014970470000FF0700
:101B20000000F87F0EF1020E2EF0030E5EF8046B3B
:101B3000364205D4012A43EB030515F5001F12D8E0
:101B4000012841EB010C1CF5001F0CD80ED14FEA07
:101B5000D17C15F5001F0CEB4C0C0CF1020C08BFEE
:101B60004CEBD37C04E04FF0080C01E04FEAD37C4F
:101B70000CEB4C0526FA05F606F00706B6F1040C48
:101B800006D20EEB860CBDE870404CF0010C6047AD
:101B9000DFE80CF0090B02024FF000414FF00000AB
:101BA000A1F5002170BD19461046012851EB010432
:101BB00018BFD4F5001484BF002001F0004170BDAF
:101BC0000808A0F500114FEA3101704710B591EAFD
:101BD000030F48BF83F000433FF502AD841A71EB59
:101BE000030C07D212198CF0004C43EB0C03001BC2
:101BF00061EB0C01DFF8A4E14FEA1154A4EB135C94
:101C00001EEA430F18BF9EEA445F00F0B08023EA4B
:101C10006E03524221EA0451C3EB6E0338BF5B1ED0
:101C2000DCF1200E25D322FA0CFE10EB0E0043FA55
:101C30000CFE41EB0E01CCF1200E03FA0EFE10EB70
:101C40000E0051F10001CCF1200E29D412FA0EF24F
:101C500001EB0451BDE8104058BF7047401C1CBF49
:101C6000B2F1004F704700280CBF491C20F0010062
:101C7000704712EB020E43EB030218BF4FF0010E48
:101C80004EEA4202ACF1200CDCF11E0E54D943FAAC
:101C90000CFE10EB0E0051F1FF31CCF11E0ED5D52C
:101CA0000EF1010E12FA0EFE404141EB010101EB73
:101CB000445C5FEA5C5C10D910EBDE7001EB045110
:101CC00038BFBEF1004FBDE8104018BF7047002874
:101CD0000CBF491C20F00100704730D24FEAD42CD1
:101CE00011F5001124F400641BD0B1FA81F20B3A13
:101CF000A41AA41ED2F12003914030FA03F3194331
:101D0000904001EBCC71002C01EB0451BDE8104078
:101D1000A8BF704701F1C0414FF0000001F0004141
:101D20007047B0FA80F310FA03F100D110BDE41A45
:101D3000173C4805C90AE4E701EB045110BD4910FE
:101D400001EB0451BDE810404FEA300002E04FF0D3
:101D5000000170474A0008BF0042F8D0B2F5001FEA
:101D600028BF704701F000414FF0000070479EEA25
:101D7000445F07D011EA5E0FBDE8104004BF0021A8
:101D800000207047BDE8104070B5FFF7CBFE00BFE4
:101D900040DFF63E83F00041104670470000E0FF50
:101DA00043004FEAD30C4FEA3C0C43401FBF4007AF
:101DB0000CF1605113F0FE4F70471CF0006F03D11F
:101DC00000200CF0004170470CF0004343EA5070D3
:101DD00010B540EACC0000F05CFA00BF00000092B1
:101DE0004FEA0001FFF7ECBE4FF000414FF000005A
:101DF000A1F500217047000090EA010F48BF81F073
:101E0000004100F1D482421A3CBF801A89184FEA7F
:101E1000D0524FF07F4C1CEA410FA2EBD15318BFB8
:101E20009CEA026F00F03B804FF0004C4CEA00202F
:101E30004CEA012121FA03FC10EB0C0C1ED202F13A
:101E4000FF325FEA1C2040EBC25038BF70471CF0E5
:101E50007F0F4FEA400C18BFBCF17F4F38BF70476F
:101E6000C3F12003994008BF20F00100BCF17F4F6F
:101E700038BF7047A0F1C04000F051BA4FEA3C00B3
:101E8000000A40EBC25028BF1CF0FF0F4FEA400C85
:101E9000E6D018BFBCF17F4F38BF7047EAE79CEA35
:101EA000026F05D010EA5C0F08BF00F000407047D9
:101EB00010B500F0EEF900BF64FBBE3E401058BF05
:101EC000C0F14040491058BFC1F140418142EFF399
:101ED000008070474FF47F0C1CEAD0121EBF1CEA32
:101EE000D11392EA0C0F93EA0C0F00F0858090EA70
:101EF000010F48BF42F4807240F4000C41F400002E
:101F00002CF07F4120F07F4000B58142A2EB03021C
:101F10000FF2081CACEB504EC0F100009EF800E040
:101F20004FEA4E0E00FB0EFC38BF49004FEA2C1C56
:101F300002F5FA020CFB0EF34FEACE1E4FEA112C0B
:101F40004FEAC1210EEB635E42EB22420EFB0CFC1A
:101F50004FEA1C5300FB03114FEA112C4FEA0131E9
:101F60000EFB0CFC4FEADC4C00FB0C11C14228BFFD
:101F700009184CEB03335DF804EB10EB410143EB24
:101F8000C250B2F57C0F38BF704729D512F0F00F60
:101F90001CBF00F1C04000F0004070470081828308
:101FA0008485868788898B8C8D8E8F919293959668
:101FB00097999A9C9D9FA0A2A3A5A7A8AAACAEB0F2
:101FC000B2B3B5B7B9BCBEC0C2C5C7C9CCCED1D4F7
:101FD000D7D9DCDFE2E6E9ECF0F3F7FAFE00000027
:101FE0004FEA400C0CF1807CBCF17E4F28BF70475B
:101FF000B0F1C04000F093B990EA010F0CEAD113A0
:1020000048BF42F48072624538BF634507D213F47B
:102010007F0F16D080EA010000F00040704710B535
:1020200000F037F9097EFC3E00F005B880EA0100B7
:1020300000F00040704780EA010000F0004000F02E
:102040006EB912F47F0F04BF0248704780EA0100A6
:1020500000F065B90000C07F50EA010C00F1138068
:102060001CF5000F58BFBCF5000F01D48842704723
:1020700007D710F5000F58BF11F5000F15D488428F
:102080007047894270471CF5000F04D5BCF5000F5E
:10209000F7D5814270474FF0807C1CEB400F38BF72
:1020A0001CEB410F01D28142704710B500F0F1F8EE
:1020B000922449004FF000504FF08051FFF7FEBED0
:1020C000C10DD1F19E0206DB4FEA002343F000432D
:1020D00023FA02F07047004207D54FEA4001B1F100
:1020E000FE4F02D24FF00000704710B500F0D1F85B
:1020F00049922480002070476FEA2000704700005A
:10210000B0FA80F310FA03F2C3F19D030AD0D905A7
:1021100001EB1220530638BF704700F1010008BFE1
:1021200020F001007047000050EA010C00F113801C
:102130001CF5000F58BFBCF5000F01D48842704752
:1021400007D710F5000F58BF11F5000F15D48842BE
:102150007047894270471CF5000F04D5BCF5000F8D
:10216000F7D5814270474FF0807C1CEB400F38BFA1
:102170001CEB410F01D28142704710B500F089F885
:10218000922449004FF000504FF08051FFF796BE67
:102190004FF47F0C1CEAD0121EBF1CEAD11392EA46
:1021A0000C0F93EA0C0F00F0478090EA010F48BF34
:1021B00042F480724FF0004C4CEA00204CEA0121BE
:1021C00002EB0302A0FB0113A2F50002002918BFD5
:1021D00043F001035B0028BF4FEA330342EB224286
:1021E0005FEA132C4CEBC2502EBFBCEB436FB2F531
:1021F0007C0F70474FEA036CBCF1004F08BF20F022
:102200000100B2F57C0F38BF70470BD582F0FF029A
:1022100012F5803FC8BF704700F1C040D8BF00F042
:102220000040704700F5000C5FEA4C0C48BF704757
:10223000B0F1C04000F073B890EA010F0CEAD1137E
:1022400048BF42F48072624538BF634504D280EAD9
:10225000010000F00040704710B500F01AF800BF10
:102260008900013E00F007B800F009B85FEA410CB0
:102270005FEA1C6C08D080EA010000F050B85FEA09
:10228000400C5FEA1C6CF6D14FF00040A0F58000D6
:1022900070470EF1020E2EF0030E5EF8044B24423E
:1022A00004D44FEA4102B2F17F4F11D84FEA400304
:1022B000B3F17F4F0CD80ED14FEAD07CB2F17F4FF3
:1022C0000CEB4C0C0CF1020C08BF4CEBD17C04E085
:1022D0004FF0080C01E04FEAD17C0CEB4C0324FAE0
:1022E00003F404F00704B4F1040C06D20EEB840CE2
:1022F000BDE810404CF0010C6047DFE80CF0070827
:1023000002024FF00040A0F5800010BD08464200D8
:1023100018BFD2F1807288BF00F0004010BDFF21CD
:1023200041EAD050C005704751EA000C00F113801B
:102330001CF5000F58BFBCF5000F01D48142704757
:1023400007D711F5000F58BF10F5000F15D48142C3
:102350007047894270471CF5000F04D5BCF5000F8B
:10236000F7D5884270474FF0807C1CEB410F38BF97
:102370001CEB400F01D28842704780EA010081EADD
:10238000000180EA0100FFF7F8BE80F0004090EA0B
:10239000010F7FF538AD81F0004100F008B8000072
:1023A00090EA010F48BF81F000413FF52CAD421A81
:1023B00004D882F00042A0EB020011444FEAD05250
:1023C0004FF07F4C1CEA410FA2EBD15318BF9CEA9F
:1023D000026F4AD04FF0004C4CEA00204CEA012139
:1023E00021FA03FCB0EB0C0C0FD412F0FE0F36D028
:1023F0005FEA4C001DD5001240EBC25038BF704759
:102400001CF03F0F18BF70470BE0A2F101025FEA1A
:102410001C2040EBC25038BF70471CF07F0F18BF24
:102420007047C3F12003994014BF401E20F0010003
:10243000704780084FEA122308BF7047B0FA80FC4B
:10244000A2EB0C02CCF1280C60FA0CF093EA122FEC
:1024500004BF00EBC25070474FEAC3707047130AC5
:102460005FEADC1008BF7047F6E79CEA026F04D011
:1024700010EA5C0F08BF0020704710B5FFF709FF96
:1024800040DFF63E81F0004070470000AC240008B9
:1024900000000020400000006C010008EC2400084F
:1024A000400000202809000088010008000000000A
:1024B000000000000000000000000000000000001C
:1024C0000000850300000000000000000000000084
:1024D00000000000000000000000000000000000FC
:0C24E000000000000000000000000000F0
:0400000508000131BD
:00000001FF
