:020000040800F2
:1000000000040020DB010008E9010008EB01000802
:10001000ED010008EF010008F101000800000000F8
:10002000000000000000000000000000F3010008D4
:10003000F501000800000000F7010008F9010008C0
:10004000FB010008FB010008FB010008FB010008A0
:10005000FB010008FB010008390C0008FB01000847
:10006000FB010008FB010008FB010008FB01000880
:10007000FB010008FB010008FB010008FB01000870
:10008000FB010008FB010008FB010008FB01000860
:10009000FB010008FB010008FB010008FB01000850
:1000A000FB010008FB010008FB010008FB01000840
:1000B000FB010008A90C0008FB010008FB01000877
:1000C000FB010008FB010008FB010008FB01000820
:1000D000FB010008CB050008FB010008FB0100083C
:1000E000FB010008FB010008FB010008FB01000800
:1000F000FB010008FB010008FB010008FB010008F0
:10010000FB010008FB010008FB010008FB010008DF
:10011000FB010008FB010008FB010008FB010008CF
:10012000FB010008FB010008FB010008FB010008BF
:1001300000F002F800F03AF80AA090E8000C8244BF
:100140008344AAF10107DA4501D100F02FF8AFF29C
:10015000090EBAE80F0013F0010F18BFFB1A43F0A5
:10016000010318471413000034130000103A24BF91
:1001700078C878C1FAD8520724BF30C830C144BF0C
:1001800004680C607047000000230024002500264E
:10019000103A28BF78C1FBD8520728BF30C148BFEA
:1001A0000B6070471FB51FBD10B510BD00F090FE6D
:1001B0001146FFF7F7FF00F0C9FD00F0AEFE03B4F3
:1001C000FFF7F2FF03BC00F0F1F9000030BF72B698
:1001D00062B680F30888704770470B4880470B4928
:1001E00081F308880A480047FEE7FEE7FEE7FEE7DE
:1001F000FEE7FEE7FEE7FEE7FEE7FEE70548064905
:10020000044A064B70470000D90100084809002045
:100210003101000848010020480900204801002061
:100220004FF0E021096921F004014FF0E022116153
:10023000C21700EB5272C2F3C702234B1A70194661
:10024000097801EB4102C2EBC1114FF6FF7202EADD
:10025000C1011E4A1180704701461B4A12784A4369
:100260004FF0E0235A6100229A6101221A6100BF17
:100270004FF0E022106900F001021AB100F4803260
:10028000002AF5D000224FF0E0231A619A617047EE
:1002900001460E4A12884A434FF0E0235A61002279
:1002A0009A6101221A6100BF4FF0E022106900F04C
:1002B00001021AB100F48032002AF5D000224FF07A
:1002C000E0231A619A6170470000002002000020BC
:1002D000AA4A0A400243AA4B1A6070470146072304
:1002E00023EA01021202A64B1B1D18684FF6FF03FA
:1002F0001840A44B18431043A14B1B1D18607047B6
:100300002DE9F0478046894614461D462046E117F0
:1003100004EB9171C1F3870AE11704EB9171891025
:10032000A4EB8101CFB2042000EBC700C7B228467E
:10033000FFF7D4FFC5F1040008FA00F60F202841AA
:1003400000EA0900064306F00F06202C09DA8E4861
:1003500001680120A04001434FF0E020C0F80011E7
:100360000BE08948001D0068A4F1200101228A40A9
:1003700010434FF0E021C1F80401844850F82A00EE
:1003800006FA07F10843814941F82A00BDE8F087E1
:1003900070B504460B46CE1701EB9676C6F3870080
:1003A000CE1701EB9676B610A1EB8606B606350E93
:1003B000774B9B6943F00103754EB3614FEAB63347
:1003C00053F820300F26AE40B343724E46F820302B
:1003D000334653F8203004FA05F61E436D4B43F8BC
:1003E00020606D4B1B6801268E4033436A4E33609C
:1003F00002F0010343B1684B0C331B6801268E40A9
:100400003343654E0C36336002F0020343B1624B56
:1004100008331E6801238B401E435F4B08331E6068
:1004200070BD00B500205A490861C86014204861B9
:1004300000208861C8610846006840F0010008603B
:1004400008464068554908405149486008460068D8
:10045000534908404E4908600846006820F480204F
:1004600008600846406820F4FE004860002088606C
:1004700000214FF00060FFF72BFF00BD10B5404892
:100480000830006840F004003D49083108604048E9
:10049000C06940F080503E49C8614248406840F41D
:1004A0008070404948600846006840F004000860D9
:1004B0000846006840F002000860FFF787FE10BDA4
:1004C0003048001D2E49091D086070470146490645
:1004D0002F4A926942F001022D4B9A612D4A083A47
:1004E000526822F0E0622B4B083B5A601A46526871
:1004F0000A435A60704730B504460025FFF791FF64
:100500002348006840F480302149086000BF20483B
:100510000068400C0028FAD04FF480601C49486005
:10052000A01EC4B20846406840EA844048600846BD
:10053000406840F4803048601B48006840F032005A
:10054000194908601248006840F08070104908603E
:1005500000BF0F480068400E0028FAD00C484068E1
:1005600040F002000A49486005E009484068C0F3CD
:10057000870505F00305022DF7D130BD80FFFF1F71
:1005800008ED00E00000FA0500E100E000E400E012
:100590000010024008000140000401400000FFF884
:1005A000FFFFF6FE0070004000200240014600BF41
:1005B000704700BF6E4A128802F04002002AF9D04C
:1005C000C2B26B4B1B1D1A8070476949098801F044
:1005D000200111B36649091D0988C8B26549098817
:1005E00001F40041C9B96349098801F4804161B14E
:1005F0000A2803D000215F4A118020E05D49098864
:1006000041F400415B4A118019E00D2806D1594997
:10061000098841F48041574A118010E05549098802
:10062000C1F30D01544A505452490988491C514A9A
:10063000118011460988C72901DD0021118070470A
:100640002DE9F05F05460E46300100F0B5FD81460C
:100650004A4905FB01F000F0AFFD8246494600F033
:10066000C9FC0746384600F087FD84B2204600F0FA
:10067000A3FD8346394600F07FFE82464FF083415A
:1006800000F0AEFD814600F077FD80464FF6FF702A
:1006900000EA041404EB080084B23948806940F091
:1006A0000400374988610846806940F480408861C9
:1006B0003448006820F47F603249086008460068CA
:1006C00040F40B6008602E48C06840F480402C491C
:1006D000C8600846C06820F48040C86024480830DC
:1006E0000480001D008842F20C01084320490C31AF
:1006F00008800846008840F480700880084600881A
:1007000040F0200008800223252203210846FFF73D
:10071000F7FDBDE8F09F00BF1549098801F0800191
:100720000029F9D0C0F30801114A121D1180704749
:1007300000B50D20FFF7EFFF0A20FFF7ECFF00BD2B
:1007400070B50546284600F0A0FB461E002403E0D5
:10075000285DFFF7E0FF641CB442F9DB285D0A283E
:1007600002D1FFF7E5FF02E0285DFFF7D4FF70BD7F
:1007700000380140080000201C00002040420F000B
:1007800000100240040801401A4AD26942F00102F6
:10079000184BDA61184A126822F0F002164B1A6000
:1007A0001A46126842F0B0021A60134A0C321268FC
:1007B00042F00202104B0C331A604FF080429085D9
:1007C0001185128B42F4E0424FF080431A831A469F
:1007D000128B42F400621A831A46128C42F0100205
:1007E0001A8480221A80D205128842F001021A80EF
:1007F0007047000000100240000801407CB506462A
:100800000125002000900190F948006820F00200C6
:10081000F74908600846006820F0010008600A20D7
:10082000FFF71AFD00240DE006EA050018B10120CB
:100830000DF8040002E000200DF804006806050E23
:10084000601CC4B2082CEFDB0125E948006820F4E5
:1008500080709DF8001009B1290200E000210843D2
:10086000E34908600846006820F400709DF8011014
:1008700011B14FF4007100E000210843DC49086029
:100880000846006820F480609DF8021011B14FF412
:10089000806100E000210843D549086008460068EF
:1008A00020F400609DF8031011B14FF4006100E0E6
:1008B00000210843CE4908600846006820F48050B3
:1008C0009DF8041011B14FF4805100E0002108435D
:1008D000C74908600846006820F400509DF80510DC
:1008E00011B14FF4005100E000210843C0490860F5
:1008F0000846006820F480409DF8061011B14FF4BE
:10090000804100E000210843B949086008460068BA
:1009100020F400409DF8071011B14FF4004100E0B1
:1009200000210843B24908600846006820F004002E
:10093000001D08606420FFF78FFCAD48006820F0C0
:100940000400AB4908606420FFF786FC7CBD7CB5E1
:1009500006460125002000900190A548006820F07F
:100960000200A34908600846006820F00100401C0E
:1009700008600A20FFF770FC00240DE006EA05007D
:1009800018B101200DF8040002E000200DF8040069
:100990006806050E601CC4B2082CEFDB01259448E4
:1009A000006820F480709DF8001009B1290200E071
:1009B000002108438E4908600846006820F4007052
:1009C0009DF8011011B14FF4007100E000210843BF
:1009D000874908600846006820F480609DF802108E
:1009E00011B14FF4806100E00021084380490860A4
:1009F0000846006820F400609DF8031011B14FF420
:100A0000006100E000210843794908600846006859
:100A100020F480509DF8041011B14FF4805100E093
:100A200000210843724908600846006820F400501D
:100A30009DF8051011B14FF4005100E0002108436A
:100A40006B4908600846006820F480409DF8061055
:100A500011B14FF4804100E000210843644908606F
:100A60000846006820F400409DF8071011B14FF4CB
:100A7000004100E0002108435D4908600846006825
:100A800020F00400001D08606420FFF7E5FB5848D3
:100A9000006820F00400564908606420FFF7DCFB82
:100AA0007CBD70B504460E46154636B1012E0AD0FF
:100AB000022E0ED0032E18D111E004F18001C8B22D
:100AC000FFF79CFE12E004F19001C8B2FFF796FE1A
:100AD0000CE004F18801C8B2FFF790FE06E004F1D3
:100AE0009801C8B2FFF78AFE00E000BF00BF06E031
:100AF0002878FFF72CFF3220FFF7AEFB6D1C28781B
:100B00000028F5D170BD10B53A48806940F020004A
:100B10003849886136480838006800203449083967
:100B200008600846006840F03330086030480068CC
:100B30004FF0FF302E4908602D480C380068002027
:100B40002B490C3908600846006840F033300860D3
:100B5000274800684FF0FF302549086008460068C4
:100B600020F0100008600A20FFF792FB2048006880
:100B700040F010001E4908603220FFF789FB30204A
:100B8000FFF73CFEC820FFF767FB3020FFF736FE7B
:100B90003220FFF761FB0C20FFF730FEC820FFF783
:100BA0005BFB1020FFF72AFEC820FFF755FB012052
:100BB000FFF724FE3220FFF76BFB0620FFF71EFE37
:100BC000C820FFF749FB0CA200210846FFF769FF88
:100BD0000EA201210020FFF764FF10A202210020D5
:100BE000FFF75FFF12A203210020FFF75AFF10BD9D
:100BF0000C14014000100240D6B1C1F7B5E7BBFAB2
:100C00002050574DC7FDB6AF000000002020BCB0FB
:100C1000B2E2CBD9CAB5D1E9000000002020D7AAA2
:100C2000CBD9A3BA202020202020202000000000C3
:100C3000202020202000000017480088401C164972
:100C40000880012015490860704710B51448806974
:100C500040F00400124988611248006820F00F003B
:100C6000104908600846006840F0080008600D4818
:100C70000C30006840F001000A490C310860022283
:100C800000210846FFF784FB0223062203211846B1
:100C9000FFF736FB10BD00000C00002014040140DB
:100CA00000100240000801402348008800F00100C5
:100CB00088B122480078401C204908700846007816
:100CC000142808DB1E4800881E49088000201C49A3
:100CD00008801A4908701848008820F00100164959
:100CE0000880704770B505460C461748C06940F04B
:100CF00002001549C86110481C300580001F04809F
:100D00000D48001F008840F001000B49091F0880B2
:100D10000846008840F040000880074810380088E6
:100D200040F0010004491039088002231D220321EC
:100D30000120FFF7E5FA70BD100400400A00002012
:100D40000C0000200E0000200010024000240126AC
:100D50000920FFF7D0FB4820FFF762FA4FF4165145
:100D60004820FFF76DFC00214FF46170FFF70CFD88
:100D7000FFF76BFF41F61F414FF4FA70FFF7B2FF28
:100D8000FFF7C1FE78E00A20FFF782FA16B1601C77
:100D900084B201E0601E84B2B4F5617F00DD0026FC
:100DA00004B901264FF080400487642094FBF0F0E2
:100DB0003030324908700A2094FBF0F00A2190FB91
:100DC000F1F201FB120030302C4948700A2094FBEC
:100DD000F0F100FB11403030284988709C20FFF76B
:100DE0000DFDC820FFF738FA04250AE0C5F104011B
:100DF000224A505CFFF7ABFDC820FFF72DFA681EB2
:100E0000C5B2002DF2DC1E480088642190FBF1F091
:100E100030301C4908701A4800880A2190FBF1F014
:100E200090FBF1F201FB1200303016494870144873
:100E300000880A2190FBF1F201FB120030301149C9
:100E400088707220C8702F200871732048718C2020
:100E5000FFF7D4FCC820FFF7FFF906250AE0C5F12B
:100E60000601084A505CFFF772FDC820FFF7F4F94D
:100E7000681EC5B2002DF2DC85E7000017000020D7
:100E80000E00002010000020704710B5431C02E047
:100E900010F8011B71B18107FAD14FF0013202C87D
:100EA0008C1A8C4314EAC211F9D0C01A0A0603D076
:100EB000C01E10BDC01A10BD0A0401D0801E10BD96
:100EC0000902FCD0401E10BD704770477047704744
:100ED000754600F029F8AE4605006946534620F0F5
:100EE0000700854618B020B5FFF788F9BDE8204017
:100EF0004FF000064FF000074FF000084FF0000BD6
:100F000021F00701AC46ACE8C009ACE8C009ACE888
:100F1000C009ACE8C0098D4670470446AFF30080B5
:100F20002046FFF74CF9000000487047E40000201D
:100F300090EA010F48BF81F0004100F12E82421A71
:100F40003CBF801A89184FEAD0524FF07F4C1CEA00
:100F5000410FA2EBD15318BF9CEA026F00F03B8017
:100F60004FF0004C4CEA00204CEA012121FA03FC2E
:100F700010EB0C0C1ED202F1FF325FEA1C2040EB9A
:100F8000C25038BF70471CF07F0F4FEA400C18BFAB
:100F9000BCF17F4F38BF7047C3F12003994008BFB1
:100FA00020F00100BCF17F4F38BF7047A0F1C04076
:100FB00000F0DDB94FEA3C00000A40EBC25028BF08
:100FC0001CF0FF0F4FEA400CE6D018BFBCF17F4F7A
:100FD00038BF7047EAE79CEA026F05D010EA5C0F61
:100FE00008BF00F00040704710B500F07AF900BF6C
:100FF00064FBBE3E4FF47F0C1CEAD0121EBF1CEAFD
:10100000D11392EA0C0F93EA0C0F00F0858090EA5E
:10101000010F48BF42F4807240F4000C41F400001C
:101020002CF07F4120F07F4000B58142A2EB03020B
:101030000FF2081CACEB504EC0F100009EF800E02F
:101040004FEA4E0E00FB0EFC38BF49004FEA2C1C45
:1010500002F5FA020CFB0EF34FEACE1E4FEA112CFA
:101060004FEAC1210EEB635E42EB22420EFB0CFC09
:101070004FEA1C5300FB03114FEA112C4FEA0131D8
:101080000EFB0CFC4FEADC4C00FB0C11C14228BFEC
:1010900009184CEB03335DF804EB10EB410143EB13
:1010A000C250B2F57C0F38BF704729D512F0F00F4F
:1010B0001CBF00F1C04000F00040704700818283F7
:1010C0008485868788898B8C8D8E8F919293959657
:1010D00097999A9C9D9FA0A2A3A5A7A8AAACAEB0E1
:1010E000B2B3B5B7B9BCBEC0C2C5C7C9CCCED1D4E6
:1010F000D7D9DCDFE2E6E9ECF0F3F7FAFE00000016
:101100004FEA400C0CF1807CBCF17E4F28BF704749
:10111000B0F1C04000F02BB990EA010F0CEAD113F6
:1011200048BF42F48072624538BF634507D213F46A
:101130007F0F16D080EA010000F00040704710B524
:1011400000F0CFF8097EFC3E00F005B880EA01000F
:1011500000F00040704780EA010000F0004000F01D
:1011600006B912F47F0F04BF0248704780EA0100FD
:1011700000F0FDB80000C07FC10DD1F19E0206DB7A
:101180004FEA002343F0004323FA02F07047004285
:1011900007D54FEA4001B1F1FE4F02D24FF00000F7
:1011A000704710B500F09DF84992248000207047E8
:1011B0006FEA200070470000B0FA80F310FA03F2E3
:1011C000C3F19D030AD0D90501EB1220530638BFA5
:1011D000704700F1010008BF20F0010070470000D7
:1011E0004FF47F0C1CEAD0121EBF1CEAD11392EA06
:1011F0000C0F93EA0C0F00F0478090EA010F48BFF4
:1012000042F480724FF0004C4CEA00204CEA01217D
:1012100002EB0302A0FB0113A2F50002002918BF94
:1012200043F001035B0028BF4FEA330342EB224245
:101230005FEA132C4CEBC2502EBFBCEB436FB2F5F0
:101240007C0F70474FEA036CBCF1004F08BF20F0E1
:101250000100B2F57C0F38BF70470BD582F0FF025A
:1012600012F5803FC8BF704700F1C040D8BF00F002
:101270000040704700F5000C5FEA4C0C48BF704717
:10128000B0F1C04000F073B890EA010F0CEAD1133E
:1012900048BF42F48072624538BF634504D280EA99
:1012A000010000F00040704710B500F01AF800BFD0
:1012B0008900013E00F007B800F009B85FEA410C70
:1012C0005FEA1C6C08D080EA010000F050B85FEAC9
:1012D000400C5FEA1C6CF6D14FF00040A0F5800096
:1012E00070470EF1020E2EF0030E5EF8044B2442FE
:1012F00004D44FEA4102B2F17F4F11D84FEA4003C4
:10130000B3F17F4F0CD80ED14FEAD07CB2F17F4FB2
:101310000CEB4C0C0CF1020C08BF4CEBD17C04E044
:101320004FF0080C01E04FEAD17C0CEB4C0324FA9F
:1013300003F404F00704B4F1040C06D20EEB840CA1
:10134000BDE810404CF0010C6047DFE80CF00708E6
:1013500002024FF00040A0F5800010BD0846420098
:1013600018BFD2F1807288BF00F0004010BDFF218D
:1013700041EAD050C005704780F0004090EA010F6C
:101380007FF5DDAD81F0004100F007B890EA010F74
:1013900048BF81F000413FF5D2AD421A04D882F037
:1013A0000042A0EB020011444FEAD0524FF07F4CB4
:1013B0001CEA410FA2EBD15318BF9CEA026F4AD03E
:1013C0004FF0004C4CEA00204CEA012121FA03FCCA
:1013D000B0EB0C0C0FD412F0FE0F36D05FEA4C00CD
:1013E0001DD5001240EBC25038BF70471CF03F0FB4
:1013F00018BF70470BE0A2F101025FEA1C2040EB2E
:10140000C25038BF70471CF07F0F18BF7047C3F140
:101410002003994014BF401E20F00100704780084F
:101420004FEA122308BF7047B0FA80FCA2EB0C020F
:10143000CCF1280C60FA0CF093EA122F04BF00EBF9
:10144000C25070474FEAC3707047130A5FEADC105E
:1014500008BF7047F6E79CEA026F04D010EA5C0F01
:1014600008BF0020704710B5FFF73BFF40DFF63E96
:1014700081F0004070470000981400080000002030
:101480001C0000006C010008B41400081C000020BF
:101490002C09000088010008000000000000000086
:1014A000000000000000000000000000000000003C
:0414B0000000000038
:0400000508000131BD
:00000001FF
